:100000000C948E010C94B6010C94B6010C947019EA
:100010000C9470190C9470190C94B6010C94B601E0
:100020000C94B6010C94B6010C94B6010C94E8192A
:100030000C94B6010C94B6010C94B6010C94B60164
:100040000C94CE180C94B6010C943E190C9418190B
:100050000C94B6010C94B6010C94B6010C94B60144
:100060000C94B6010C94B60145525220434F4D4DAD
:10007000414E440052332D41343B204348414C20F3
:1000800076657262202F204155544820686D616367
:100090003B20706879736963616C2055534220730B
:1000A000657276696365206F6E6C790045525220E7
:1000B00041555448004348414C4C454E474520006B
:1000C000455252204348414C4C454E4745004F4B0A
:1000D0002043414C5F534156454400455252204510
:1000E0004550524F4D004552522043414C5F5350B2
:1000F000414E004F4B205A45524F5F43415054559B
:100100005245445F4144445F3530304700455252C8
:100110002043414C5F434F4E444954494F4E530096
:100120004F4B2050524F564953494F4E45445F5212
:1001300045424F4F540045525220454550524F4D75
:1001400000455252204E45575F52414E444F4D5F3D
:100150004B45595F5245515549524544004552520D
:10016000204C4F43414C5F5345525649434500454F
:10017000525220464F524D415400982F8A4291448A
:100180003771CFFBC0B5A5DBB5E95BC25639F111BC
:10019000F159A4823F92D55E1CAB98AA07D8015BA7
:1001A0008312BE853124C37D0C55745DBE72FEB1D1
:1001B000DE80A706DC9B74F19BC1C1699BE4864786
:1001C000BEEFC69DC10FCCA10C246F2CE92DAA84D3
:1001D000744ADCA9B05CDA88F97652513E986DC653
:1001E00031A8C82703B0C77F59BFF30BE0C64791BA
:1001F000A7D55163CA0667292914850AB72738216C
:100200001B2EFC6D2C4D130D385354730A65BB0A1D
:100210006A762EC9C281852C7292A1E8BFA24B6674
:100220001AA8708B4BC2A3516CC719E892D124064F
:1002300099D685350EF470A06A1016C1A419086C01
:10024000371E4C774827B5BCB034B30C1C394AAACA
:10025000D84E4FCA9C5BF36F2E68EE828F746F632B
:10026000A5781478C8840802C78CFAFFBE90EB6C9E
:1002700050A4F7A3F9BEF27871C652332D41342051
:1002800052454144593B206B657920616E6420637F
:10029000616C6962726174696F6E206D7573742030
:1002A00062652070726F766973696F6E65643B205A
:1002B0006E6F20626F6F74207461726500000000C1
:1002C00000240027002A00000000080002010000AE
:1002D00003040700000000000000000000000023ED
:1002E000002600290000000000250028002B000443
:1002F00004040404040404020202020202030303CD
:1003000003030301020408102040800102040810C6
:100310002001020408102000681A3C1F11241FBE8F
:10032000CFEFD8E0DEBFCDBF24E0AEE6B2E001C043
:100330001D92A73EB207E1F712E0A0E0B1E0EAEAC1
:10034000FEE402C005900D92AE36B107D9F711E078
:10035000CDE8D1E004C02197FE010E943723CC38BC
:10036000D107C9F70E94751B0C9448270C94000014
:100370000F931F93AB01BC0180911F03882361F190
:1003800080912003882341F180912B0390912C03CD
:10039000A0912D03B0912E038A019B01081B190B1C
:1003A0002A0B3B0BD901C801803D9740A105B1053F
:1003B00090F480912F0390913003A0913103B0917C
:1003C0003203481B590B6A0B7B0B81E0483E5340BC
:1003D0006105710508F480E01F910F9108959091D7
:1003E0002203892B8093220380911D03882391F09F
:1003F00010921D0340932703509328036093290311
:1004000070932A034093330350933403609335036E
:1004100070933603089580911703882309F1809122
:1004200019038823E9F080911603811118C0909177
:100430001803911115C080911A03882389F08091C7
:100440001B03882369F080911C03882349F0809165
:100450001D03811104C081E090912203911180E07D
:1004600008952F923F924F925F926F927F928F9258
:100470009F92AF92BF92CF92DF92EF92FF920F9333
:100480001F93CF93DF9300D000D0CDB7DEB750904D
:100490005801552009F455C090E0292E91E0392EDD
:1004A0001C821B82B0E0A0E019821A82612C712CA0
:1004B000412CF101C190D190E190F1901F014601D2
:1004C0005701BB0C8808982C54019601A701682D90
:1004D000782D882D982DAC80BB80CB2EDA2EE9802C
:1004E000FA8083010E9411232C833B83B42FA52F14
:1004F00069837A833C0143945410DBCFA52CB12C43
:10050000C12CD12CE12CF12C00E010E00E9406223D
:10051000B901CA010F900F900F900F90DF91CF910A
:100520001F910F91FF90EF90DF90CF90BF90AF9011
:100530009F908F907F906F905F904F903F902F9003
:10054000089560E070E080E090E0E4CF4F925F9229
:100550006F927F92AF92BF92CF92DF92EF92FF9213
:100560000F931F93CF93DF9300D000D0CDB7DEB7AA
:100570000E9431026B017C01FF0CCC08DC2C76015F
:100580004090500150905101609052017090530181
:10059000A3019201550F220B322FA90129833A831F
:1005A0004B835C839B01AC016C2D7C2D8C2D9C2D91
:1005B00052016301E980FE2C0E2D1E2D0E941A238C
:1005C0000E94472020E030E04AE754E40E94522194
:1005D000209154013091550140915601509157019D
:1005E0000E949F1F0E9411200F900F900F900F905C
:1005F000DF91CF911F910F91FF90EF90DF90CF90FF
:10060000BF90AF907F906F905F904F900895CF9282
:10061000DF92EF92FF920F931F93CF93C0916201ED
:10062000CC2309F469C020915801243109F063C03A
:10063000C0916501C1115FC000915A0110915B0129
:1006400020915C0130915D01601B710B820B930B5B
:100650006F3571408105910508F04EC0442309F4BF
:100660004BC00091000110910101209102013091D5
:100670000301E4E0F1E040E551E0D901C801C19097
:10068000D190E190F190C016D106E206F30614F481
:10069000970186018C159D05AE05BF0514F4D701A1
:1006A000C6014E175F0759F7BC01CD01601B710BE6
:1006B000820B930B0E944F202091540130915501E1
:1006C00040915601509157015F770E949F1F2DEC7A
:1006D0003CEC4CE45FE30E949A1F18166CF00E94F9
:1006E000A60268517C4F8F4F9F4FC1E0693276441C
:1006F0008F40910508F0C0E08C2FCF911F910F9192
:10070000FF90EF90DF90CF90089586E480937C0077
:1007100080917A00806480937A0080917A0086FDCF
:10072000FCCF80917800909179000895833081F01A
:1007300028F4813099F08230A9F008958730A9F02B
:100740008830C9F08430B1F4809180008F7D03C07F
:10075000809180008F7780938000089584B58F7793
:1007600084BD089584B58F7DFBCF8091B0008F77D5
:100770008093B00008958091B0008F7DF9CFCF9322
:10078000DF93282F30E0F901E953FD4F8491F901FF
:10079000ED5FFC4FD491F901E151FD4FC491CC23A1
:1007A000A1F081110E949603EC2FF0E0EE0FFF1FE5
:1007B000E552FD4FA591B491EC91ED2381E090E0DD
:1007C00009F480E0DF91CF91089580E090E0FACFC6
:1007D0001F93CF93DF93282F30E0F901E953FD4FAA
:1007E0008491F901ED5FFC4FD491F901E151FD4F86
:1007F000C491CC23A9F0162F81110E949603EC2FEF
:10080000F0E0EE0FFF1FEB51FD4FA591B4918FB7B4
:10081000F894EC91111108C0D095DE23DC938FBFC2
:10082000DF91CF911F910895DE2BF8CFCF93DF9307
:1008300090E0FC01ED5FFC4F249181519D4FFC0144
:1008400084918823C9F090E0880F991FFC01E3543C
:10085000FD4FA591B491FC01EB51FD4FC591D49191
:1008600061110DC09FB7F8948C91209582238C93D1
:100870008881282328839FBFDF91CF91089562301C
:1008800051F49FB7F8943C91822F809583238C93E9
:10089000E8812E2BEFCF8FB7F894EC912E2B2C9371
:1008A0008FBFEACF2FB7F8946091120370911303B2
:1008B00080911403909115032FBF0895EF92FF923A
:1008C0000F931F93CF93DF938C017B01D0E0C0E0A7
:1008D000F701EC0FFD1F6491662361F0D801ED91E3
:1008E000FC910190F081E02DC8010995892B11F050
:1008F0002196EECFCE01DF91CF911F910F91FF9006
:10090000EF900895AF92BF92CF92DF92EF92FF9255
:100910000F931F93CF93DF936C017B018B01040F27
:10092000151FEB015E01AE18BF08C017D10759F0C3
:100930006991D601ED91FC910190F081E02DC60105
:100940000995892B79F7C501DF91CF911F910F91FF
:10095000FF90EF90DF90CF90BF90AF900895FC0193
:10096000538D448D252F30E0842F90E0821B930B14
:10097000541710F0CF96089501970895FC01918DBA
:10098000828D981761F0A28DAE0FBF2FB11D5D96BD
:100990008C91928D9F5F9F73928F90E008958FEF5F
:1009A0009FEF0895FC01918D828D981731F0828D13
:1009B000E80FF11D858D90E008958FEF9FEF08956A
:1009C000FC01918D228D892F90E0805C9F4F821BCE
:1009D00091098F739927089587E393E00E94E004BB
:1009E00021E0892B09F420E0822F089580E090E037
:1009F000892B29F00E94EC0481110C9400000895C9
:100A0000FC01A48DA80FB92FB11DA35ABF4F2C9183
:100A1000848D90E001968F739927848FA689B7897A
:100A20002C93A089B1898C91837080648C93938D71
:100A3000848D981306C00288F389E02D80818F7D14
:100A400080830895EF92FF920F931F93CF93DF93CC
:100A5000EC0181E0888F9B8D8C8D98131AC0E889FA
:100A6000F989808185FF15C09FB7F894EE89FF89C9
:100A70006083E889F98980818370806480839FBF67
:100A800081E090E0DF91CF911F910F91FF90EF9067
:100A90000895F62E0B8D10E00F5F1F4F0F73112777
:100AA000E02E8C8D8E110CC00FB607FCFACFE889B2
:100AB000F989808185FFF5CFCE010E940005F1CF35
:100AC000EB8DEC0FFD2FF11DE35AFF4FF0829FB726
:100AD000F8940B8FEA89FB8980818062CFCFCF9316
:100AE000DF93EC01888D8823B9F0AA89BB89E88956
:100AF000F9898C9185FD03C0808186FD0DC00FB6FC
:100B000007FCF7CF8C9185FFF2CF808185FFEDCF79
:100B1000CE010E940005E9CFDF91CF910895209189
:100B2000BD023091BE022817390771F49091BB02C3
:100B30008091BC02981741F0E091BB02F0E0E558CB
:100B4000FD4F808190E008958FEF9FEF0895089505
:100B5000EF92FF920F931F93CF93DF93DC015C968C
:100B6000ED90FC905D97E114F10479F481E090E060
:100B700013969C938E93129790E080E0DF91CF9133
:100B80001F910F91FF90EF9008955196ED91FC9178
:100B9000529750968C915097982F90950FB75E96DC
:100BA0002C915E97122F127021FD6095F894208190
:100BB000112319F1282B2083E7012197F1F728E071
:100BC000462F50E0308160FF1AC0382B3083E70198
:100BD0002197F1F7BA0175956795215089F711238F
:100BE00081F08081892380830FBF5C968D919C91D9
:100BF0000197F1F781E090E0C1CF2923DCCF3923C1
:100C0000E5CF9081892BEFCF2091BD023091BE02BC
:100C10002817390761F48091BC022091BB0290E053
:100C2000805C9F4F821B91098F739927089590E0F4
:100C300080E008952091BD023091BE022817390747
:100C4000B9F49091BB028091BC02981789F0E091B1
:100C5000BB02F0E0E558FD4F80812091BB0230E0FF
:100C60002F5F3F4F2F7333272093BB0290E00895EF
:100C70008FEF9FEF089590E080E008952F923F92CC
:100C80004F925F926F927F928F929F92AF92BF929C
:100C9000CF92DF92EF92FF920F931F93CF93DF9348
:100CA000CDB7DEB7C854D1090FB6F894DEBF0FBE7A
:100CB000CDBF1C019C01205C3F4FFC0162A173A1D0
:100CC00084A195A10E94F52162A373A384A395A397
:100CD00034962E173F0791F7D10112968D909D9073
:100CE000AD90BC9015978FA298A6A9A6BAA6169605
:100CF0008D909D90AD90BC9019978BA69CA6ADA6AB
:100D0000BEA61A968D909D90AD90BC901D978FA613
:100D100098AAA9AABAAA1E968D909D90AD90BC9053
:100D200051978BAA9CAAADAABEAA52968D909D906F
:100D3000AD90BC9055978FAA98AEA9AEBAAE569614
:100D40008D909D90AD90BC9059978BAE9CAEADAE02
:100D5000BEAE5A968D909D90AD90BC905D972396B7
:100D60008CAE9DAEAEAEBFAE23975E968D909D903D
:100D7000AD90BC90919727968CAE9DAEAEAEBFAEB7
:100D800027970AE711E029961FAF0EAF2997910127
:100D90002E5D3F4F3E872D87A1014E595F4F5CA3CB
:100DA0004BA32401350123966CAD7DAD8EAD9FAD77
:100DB00023976F87788B898B9A8B8BAD9CADADAD6C
:100DC000BEAD8F8B988FA98FBA8F8FA898ACA9AC26
:100DD000BAAC8D829E82AF82B886ABA8BCA8CDA8E3
:100DE000DEA8AF8EB8A2C9A2DAA2CFA4D8A8E9A87B
:100DF000FAA8CB8EDC8EED8EFE8EEBA4FCA40DA5A6
:100E00001EA5EB8AFC8A0D8B1E8B0FA118A529A5A8
:100E10003AA509871A872B873C872996EEADFFAD47
:100E20002997C590D590E590F490ED85FE85819148
:100E30009191A191B191FE87ED878D809E80AF80C9
:100E4000B8841AE1880C991CAA1CBB1C1A95D1F70E
:100E50004D815E816F81788506E07695679557951F
:100E600047950A95D1F7842A952AA62AB72A4D8153
:100E70005E816F81788525E1440F551F661F771FBE
:100E80002A95D1F70D811E812F8138850F2EFBE029
:100E90003695279517950795FA95D1F7F02D402BA4
:100EA000512B622B732B482559256A257B258D8074
:100EB0009E80AF80B88429E1B694A79497948794D4
:100EC0002A95D1F70D811E812F813885689416F8F7
:100ED000000F111F221F331F1694D1F7082919295B
:100EE0002A293B2940275127622773278C0D9D1DF6
:100EF000AE1DBF1D480F591F6A1F7B1F0D811E812C
:100F00002F81388500951095209530958F8498888D
:100F1000A988BA88082119212A213B218D819E8127
:100F2000AF81B885AF88B88CC98CDA8C8A219B21B7
:100F3000AC21BD2180279127A227B3278A019B01DD
:100F4000080F191F2A1F3B1F400E511E621E731EE1
:100F500089849A84AB84BC848EE1880C991CAA1C79
:100F6000BB1C8A95D1F7C984DA84EB84FC8492E0B7
:100F7000F694E794D794C7949A95D1F78C289D2836
:100F8000AE28BF2849855A856B857C8523E1440FAF
:100F9000551F661F771F2A95D1F709851A852B855E
:100FA0003C85ADE03695279517950795AA95D1F71D
:100FB000402B512B622B732B84269526A626B72611
:100FC00049855A856B857C85B6E1769567955795F9
:100FD0004795BA95D1F709851A852B853C858AE016
:100FE000000F111F221F331F8A95D1F7402B512B61
:100FF000622B732B482559256A257B258B899C8973
:10100000AD89BE89CB8CDC8CED8CFE8C8C259D252E
:10101000AE25BF25E984FA840B851C858E219F218E
:10102000A023B1230B891C892D893E898B8C9C8C34
:10103000AD8CBE8C082119212A213B2180279127C4
:10104000A227B327480F591F6A1F7B1F8F8D98A1B6
:10105000A9A1BAA1840D951DA61DB71D630152015A
:10106000A40EB51EC61ED71EA982BA82CB82DC8210
:1010700029960EAD1FAD29970C5F1F4F29961FAF04
:101080000EAF29972B8D3C8D4D8D5E8D2F8F38A304
:1010900049A35AA34F84588869887A884BA15CA1D8
:1010A0004E175F0709F09AC26AEB71E078A36F8F61
:1010B00001E010E01E870D87ED85FE85EF70FF27AC
:1010C0003896EE0FFF1FEE0FFF1FE20DF31D02819A
:1010D000138124813581ED85FE853D96EF70FF27D4
:1010E0003896EE0FFF1FEE0FFF1FE20DF31DC280BB
:1010F000D380E480F5804D85415F4F70642F70E0B0
:101100007CA36BA34801590157E0B694A794979428
:1011100087945A95D1F7B901A801E9E1440F551F09
:10112000661F771FEA95D1F7842A952AA62AB72A3F
:10113000B901A801FEE0440F551F661F771FFA95FD
:10114000D1F728013901E2E17694679457944794E6
:10115000EA95D1F744295529662977294825592543
:101160006A257B25F3E03695279517950795FA951F
:10117000D1F74027512762277327EBA1FCA13896AE
:10118000EE0FFF1FEE0FFF1FE20DF31DFCA3EBA3FD
:101190000281138124813581400F511F621F731F0B
:1011A000ED85FE853896EF70FF273896EE0FFF1F0E
:1011B000EE0FFF1FE20DF31D0281138124813581A3
:1011C000040F151F261F371F460157014FE0880CDB
:1011D000991CAA1CBB1C4A95D1F7B701A601E1E1F5
:1011E0007695679557954795EA95D1F7842A952A7C
:1011F000A62AB72AB701A601FDE0440F551F661FB6
:10120000771FFA95D1F726013701E3E176946794C9
:1012100057944794EA95D1F74429552966297729A7
:10122000482559256A257B25FAE0F694E794D7945A
:10123000C794FA95D1F74C255D256E257F25040FBF
:10124000151F261F371FEBA1FCA1028313832483E4
:101250003583EF8DF8A185909590A590B4908BA2E1
:101260009CA2ADA2BEA24C015D014AE1880C991C72
:10127000AA1CBB1C4A95D1F76C017D0156E0F6947F
:10128000E794D794C7945A95D1F78C289D28AE2817
:10129000BF282C013D0165E1440C551C661C771CE0
:1012A0006A95D1F7AC01BD01EBE07695679557954E
:1012B0004795EA95D1F7442A552A662A772A842445
:1012C0009524A624B7242C013D01F9E17694679476
:1012D00057944794FA95D1F7AC01BD01E7E0440F6C
:1012E000551F661F771FEA95D1F7442A552A662AAB
:1012F000772A482459246A247B246C017D01C094F8
:10130000D094E094F0944F89588D698D7A8DC422E1
:10131000D522E622F7228D809E80AF80B884882275
:101320009922AA22BB22C824D924EA24FB24C40C73
:10133000D51CE61CF71C8BA09CA0ADA0BEA0C80CC1
:10134000D91CEA1CFB1C0C0D1D1D2E1D3F1DAF845E
:10135000B888C988DA880A0D1B1D2C1D3D1D4981DE
:101360005A816B817C81FEE1440F551F661F771FF8
:10137000FA95D1F749805A806B807C80E2E07694C0
:10138000679457944794EA95D1F7442955296629DB
:101390007729C980DA80EB80FC80F3E1CC0CDD1C7E
:1013A000EE1CFF1CFA95D1F789809A80AB80BC8037
:1013B000EDE0B694A79497948794EA95D1F7C8285E
:1013C000D928EA28FB284C255D256E257F25C98074
:1013D000DA80EB80FC80F6E1F694E794D794C7942A
:1013E000FA95D1F789809A80AB80BC80EAE0880CBE
:1013F000991CAA1CBB1CEA95D1F7C828D928EA2851
:10140000FB28C426D526E626F72649855A856B850E
:101410007C858B889C88AD88BE88482559256A259F
:101420007B2589809A80AB80BC80482159216A2124
:101430007B2149845A846B847C848B889C88AD880A
:10144000BE88482059206A207B20442555256625E2
:101450007725C40ED51EE61EF71E8B8C9C8CAD8C9A
:10146000BE8C800E911EA21EB31EC00ED11EE21EA7
:10147000F31E0D851E850F5F1F4F1E870D872F8D55
:1014800038A12C5F3F4F38A32F8F4B895C896D8922
:101490007E894B8F5C8F6D8F7E8F0F89188D298D84
:1014A0003A8D0F87188B298B3A8B2D853E852133FA
:1014B000310509F0C0C04FA158A569A57AA5C40E91
:1014C000D51EE61EF71EF101C282D382E482F582A8
:1014D0004BA55CA56DA57EA5C980DA80EB80FC805C
:1014E0004C0D5D1D6E1D7F1D468357836087718780
:1014F0004FA558A969A97AA9C984DA84EB84FC8428
:101500004C0D5D1D6E1D7F1D428753876487758757
:101510004BA95CA96DA97EA9CB88DC88ED88FE88E3
:101520004C0D5D1D6E1D7F1D46875787608B718B2F
:10153000CFA8D8ACE9ACFAAC8C0C9D1CAE1CBF1C7F
:10154000828A938AA48AB58A8BAC9CACADACBEACC3
:10155000880D991DAA1DBB1D868B978BA08FB18FFF
:1015600023968CAD9DADAEADBFAD23978D809E8093
:10157000AF80B884880D991DAA1DBB1D828F938FE3
:10158000A48FB58F27968CAD9DADAEADBFAD27971F
:101590008F88988CA98CBA8C880D991DAA1DBB1DAB
:1015A000868F978FA0A3B1A3C85BDF4F0FB6F894C7
:1015B000DEBF0FBECDBFDF91CF911F910F91FF9086
:1015C000EF90DF90CF90BF90AF909F908F907F90E3
:1015D0006F905F904F903F902F9008952F89388D96
:1015E000498D5A8D2F87388B498B5A8B4D815E815F
:1015F0006F8178854F8B588F698F7A8F8D839E830B
:10160000AF83B8876B897C898D899E896B8F7C8F2E
:101610008D8F9E8F89859A85AB85BC858B8B9C8BA6
:10162000AD8BBE8B89809A80AB80BC8089869A8680
:10163000AB86BC86F2CB2D813E814F8158852F8BA6
:10164000388F498F5A8F8D839E83AF83B887D5019A
:10165000C40149855A856B857C854B8B5C8B6D8B72
:101660007E8B89809A80AB80BC8089869A86AB8687
:10167000BC86C982DA82EB82FC821ECDFC013296E6
:101680009C0125593F4F10823196E217F307D9F795
:10169000DC01ED91FC910084F185E02D0994FC01C1
:1016A00087E696EEA9E0BAE682839383A483B583A6
:1016B00085E89EEAA7E6BBEB86839783A087B18780
:1016C00082E793EFAEE6BCE382879387A487B58772
:1016D0008AE395EFAFE4B5EA86879787A08BB18B55
:1016E0008FE792E5AEE0B1E5828B938BA48BB58B4F
:1016F0008CE898E6A5E0BBE9868B978BA08FB18F2D
:101700008BEA99EDA3E8BFE1828F938FA48FB58F09
:1017100089E19DECA0EEBBE5868F978FA0A3B1A3D6
:10172000DF01A659BF4F1C92EE59FF4F1082118264
:10173000128213821482158216821782089580E421
:1017400090E0089580E290E00895FC01329685597A
:101750009F4F108231968E179F07D9F708958111F8
:101760000DC08091B604811109C090919A04911125
:1017700006C080911D0391E08927089580E00895B7
:101780000E9485030E948503DC0128EA35E24AE0D5
:1017900050E00E94FC212FED33E840E050E00E9431
:1017A000D32130937502209374020895CF92DF9273
:1017B000EF92FF920F931F936B017C010E94B8017F
:1017C0008823A9F180911D03811138C0409127031E
:1017D000509128036091290370912A039701860193
:1017E000041B150B260B370BB901A801483B5B40C6
:1017F00061057105E0F04091050350910603609189
:10180000070370910803C41AD50AE60AF70A28E903
:10181000C2162AE3D206E104F10448F080911A03CB
:10182000882329F080911B03811180911C031F9153
:101830000F91FF90EF90DF90CF90089580E0F7CF69
:1018400090911D0380916E02981711F12FB7F894B3
:1018500090911D039923E9F010926F021092850078
:101860001092840041E15AE7509389004093880028
:1018700082E086BB109280008DE080938100809191
:101880006F00826080936F005F9A90936E022FBF0B
:1018900008955F9880916F008D7F80936F00109204
:1018A0008100F3CFCF92DF92EF92FF92CF93DF933D
:1018B000EC016A017B0188810E94BF0321E0892B32
:1018C00009F020E08981821729F02983CB82DC820C
:1018D000ED82FE828B819C81AD81BE81C81AD90ABE
:1018E000EA0AFB0A8EE1C816D104E104F10410F003
:1018F00089818A83DF91CF91FF90EF90DF90CF9025
:1019000008959F92AF92BF92CF92DF92EF92FF9293
:101910000F931F93CF93DF936B017C01BC01A60152
:101920008BEB94E00E94520CB701A60184EB94E08B
:101930000E94520CB701A6018DEA94E00E94520C5D
:10194000B701A60186EA94E00E94520CB701A601F5
:101950008FE994E00E94520CB701A60188E994E057
:101960000E94520C8091700290917102A0917202BB
:10197000B0917302A7019601281B390B4A0B5B0B30
:10198000DA01C9014997A105B10550F0C092700272
:10199000D0927102E0927202F09273020E94C00B28
:1019A0009090BD04A090B604B090AF040091A8043C
:1019B000D091A104C0919A04809174029091750213
:1019C00080539A4211E08937954008F010E08091E9
:1019D0001D03882369F08091A004882321F0809161
:1019E0009904811105C0B701A60181E00E94EF01B1
:1019F00080916F02882339F010926F02B701A6011F
:101A000088E00E94EF0190921603A0921703B09213
:101A1000180300931903D0931A03C0931B03109368
:101A20001C03DD2311F0C11105C0B701A60181E03F
:101A30000E94EF0180911C03811105C0B701A6012E
:101A400084E00E94EF0180911603882321F08091A9
:101A50001903811108C080911703882349F08091F0
:101A60001803882329F0B701A60182E00E94EF0144
:101A7000C0911703CC2361F080912103811108C02C
:101A8000C0923303D0923403E0923503F0923603D0
:101A900080911D03882359F0C701B6010E94B80147
:101AA000811140C0B701A60182E00E94EF01809140
:101AB0001703882331F180911D03811122C0809189
:101AC000330390913403A0913503B0913603A701FD
:101AD0009601281B390B4A0B5B0BDA01C901813DCA
:101AE0009740A105B10568F080911903882321F082
:101AF00080911603882329F0B701A60182E00E9495
:101B0000EF018091170380932103DF91CF911F9103
:101B10000F91FF90EF90DF90CF90BF90AF909F908C
:101B20000C94200C8091230390912403A091250311
:101B3000B0912603A7019601281B390B4A0B5B0BBA
:101B4000DA01C901843F31E09307A105B10550F0E6
:101B500020911603222309F4A5CF803D9740A105CB
:101B6000B10538F480911E038823B1F0CC2309F429
:101B70009ECF10921D03C0922703D0922803E092BB
:101B80002903F0922A03C0923303D0923403E092E7
:101B90003503F09236038BCFC11189CFEACFCF93B3
:101BA000DF93EC0162E088810E94160488810E9424
:101BB000BF0321E0892B09F020E02A8329830E94BA
:101BC00052046B837C838D839E83DF91CF91089534
:101BD000FC01680F791F8FEF9FEFE617F70799F069
:101BE0002191822728E0DC01B695A795AC014170D0
:101BF000552780FF02C041E050EACD018427952798
:101C0000215089F7EACF0895CF93DF93282FEA0177
:101C1000DC01ED91F0E094E0F595E7959A95E1F718
:101C2000EC54FE4F80818883FD013197E081EF7095
:101C3000F0E0EC54FE4F8081898322968A2F821B2C
:101C4000861738F370E0660F771F640F751FFB016E
:101C50001082DF91CF910895009739F1FC01019036
:101C60000020E9F79F012154310928173907E9F4C9
:101C7000FC01DB01AC01405C5F4F808190ED980F6F
:101C80009A3030F09FE9980F963088F499EA980FCF
:101C9000818120ED280F2A3030F02FE9280F2630DF
:101CA00020F429EA280F9F3F21F480E008959FEF58
:101CB000EFCF30E19302C0011124822B8D93329635
:101CC0004E175F07D1F681E00895FB0101900020D7
:101CD000E9F73197AF01461B570BDC01ED91FC9101
:101CE0000280F381E02D09940F931F93CF93DF932C
:101CF000EC010E945E048C0165EC71E0CE010E9453
:101D0000650E800F911FDF91CF911F910F91089564
:101D10006F927F928F929F92AF92BF92CF92DF92FB
:101D2000EF92FF920F931F93CF93DF934C013B01F0
:101D3000EA01FC01EE59FF4F9A0140E050E060E0FB
:101D400070E080E090E003E00E94DB22A080B180A0
:101D5000C280D380E480F580068117810E94112320
:101D6000208331834283538364837583868397837F
:101D7000840106591F4F80E4A82E740182E2E80E08
:101D8000F11C209711F1F8018081BA2CB81ABC1609
:101D90001D0611F008F0BC2ECB2CD12CA601B301EE
:101DA0008E0D9F2D911D0E948124F80180818B0D45
:101DB0008083CC19DD096C0C7D1C803411F7C401C3
:101DC0000E943E06F8011082DCCFDF91CF911F9177
:101DD0000F91FF90EF90DF90CF90BF90AF909F90CA
:101DE0008F907F906F9008950E947C244F925F9215
:101DF0006F927F928F929F92AF92BF92CF92DF921B
:101E0000EF92FF920F931F93CF93DF937C014B01CF
:101E10005A016C0182E2C80ED11CF701E659FF4F4E
:101E20008081D601A80FB11DE701CE59DF4F88335D
:101E300008F085C080E88C93808190E047E350E013
:101E4000481B590B019670E060E08C0D9D1D0E94AF
:101E50008A24688179818A819B810E94F5212B01E6
:101E60003C01288139814A815B816C817D818E8131
:101E70009F8100E20E94F622C901DA01F701E65AC9
:101E8000FF4F0B2F112722273327782F662755273F
:101E90004427402B512B622B732B092F1A2F2B2FEA
:101EA0003327002722273327402B512B622B732BFC
:101EB000BA2FA92F982F882788279927BB27842BEB
:101EC000952BA62BB72B80839183A283B383349663
:101ED0004082518262827382C7010E943E06F701EE
:101EE000329661917191819191910E94F521648F57
:101EF000758F868F978FEC15FD0599F7D701ED91BA
:101F0000FC910480F581E02DC7010995A816B9065A
:101F100008F4C501AC01B601C401DF91CF911F9156
:101F20000F91FF90EF90DF90CF90BF90AF909F9078
:101F30008F907F906F905F904F900C94812480E8F9
:101F40008C93808190E04FE350E0481B590B019641
:101F500070E060E08C0D9D1D0E948A24C7010E94E4
:101F60003E0688E3D6011D928A95E9F772CF8F92DB
:101F70009F92AF92BF92CF92DF92EF92FF920F9318
:101F8000CF93DF93EC016B014A017901E881F9817C
:101F90000680F781E02D09955C01E881F9810084D4
:101FA000F185E02DCE010995AE14BF04C8F0A7015C
:101FB000B401C6010E948124A5014E195F09602F5A
:101FC00070E0EC0CFD1CC7010E948A24F601EE159E
:101FD000FF0541F18191DF01119780278C93F7CFA5
:101FE000E881F9810284F385E02DA701B401CE01D7
:101FF0000995E881F9810480F581E02DCE010995EC
:102000007C01E881F9810484F585E02DAC01B601FD
:10201000CE010995E881F9810084F185E02DCE019A
:102020000995CACFDF91CF910F91FF90EF90DF908C
:10203000CF90BF90AF909F908F9008956F927F92B6
:102040008F929F92AF92BF92CF92DF92EF92FF92C8
:102050000F931F93CF93DF93CDB7DEB7A0970FB643
:10206000F894DEBF0FBECDBF7C014B013A01690180
:102070005801DC01ED91FC910484F585E02D40E2EE
:1020800050E0BE016F5F7F4F0995B7016E5D7F4FD6
:102090000CE59301A401C7010E94B70FF701EE59A7
:1020A000FF4F208131814281538164817581868116
:1020B00097813E5F4F4F5F4F6F4F7F4F8F4F9F4FC7
:1020C000208331834283538364837583868397831C
:1020D000C7010E943E06D701ED91FC910285138550
:1020E0000480F581E02DC7010995AC01BE016F5F49
:1020F0007F4FC701F8010995D701ED91FC91048448
:10210000F585E02DA501B601C7010995FE013196BF
:10211000CE01819610823196E817F907D9F7A0967B
:102120000FB6F894DEBF0FBECDBFDF91CF911F91E8
:102130000F91FF90EF90DF90CF90BF90AF909F9066
:102140008F907F906F9008950F93CF93DF93EC0162
:102150009A01829606E3AB01BC01CE010E94B70F43
:10216000FE01EE59FF4F208131814281538164810C
:102170007581868197813E5F4F4F5F4F6F4F7F4FD5
:102180008F4F9F4F208331834283538364837583B2
:1021900086839783CE01DF91CF910F910C943E06F9
:1021A000CF93DF93EC010E94A50BCE01DF91CF917D
:1021B0000C94F3231F93CF93DF93EC01162F0E940F
:1021C000841F181739F0612FCE01DF91CF911F9135
:1021D0000C948C1FDF91CF911F9108950C94841F54
:1021E0008F929F92AF92BF92CF92DF92EF92FF9227
:1021F0000F931F93CF93DF93CDB7DEB72B970FB617
:10220000F894DEBF0FBECDBF7B018E010F5F1F4F65
:102210004E012CE0820E911C58016C01C01AD10AAB
:10222000C6018A0D9B1D0E94EE10F50181935F018E
:102230008E169F06A9F78B85853A09F062C068E083
:1022400070E0C8010E94E80D29853A85821793073E
:1022500009F057C030E020E0812C912C540180E03F
:1022600090E0DC01F80141918F0150E070E060E006
:10227000022E04C0440F551F661F771F0A94D2F721
:10228000842B952BA62BB72B438150E070E060E0A8
:10229000022E04C0440F551F661F771F0A94D2F701
:1022A000842A952AA62AB72A285F3F4F2032310573
:1022B000C9F60097A105B10521F1AC01BD0140951A
:1022C00050956095709584169506A606B706C9F4D4
:1022D000F70180839183A283B38381E02B960FB6AD
:1022E000F894DEBF0FBECDBFDF91CF911F910F914C
:1022F000FF90EF90DF90CF90BF90AF909F908F9026
:10230000089580E0EBCF4F925F926F927F928F9211
:102310009F92AF92BF92CF92DF92EF92FF920F9374
:102320001F93CF93DF93CDB7DEB72E970FB6F894F8
:10233000DEBF0FBECDBF6C012A013B01CE0101966D
:102340007C01FC0190E080E05B014A018094909464
:10235000A094B094B301A201082E04C076956795AD
:10236000579547950A94D2F74193B501A401082ED9
:1023700004C076956795579547950A94D2F743839D
:1023800008968032910531F768E070E0C7010E943D
:10239000E80D89879A8756019AE0A90EB11C60E082
:1023A000C5010E94DA1010E000E0F70161917F01A1
:1023B000C601800F911F0E94DA100F5F1F4F0A3075
:1023C000110599F765EAC5010E94DA101B861C8683
:1023D0001D861E86BE01655F7F4FC6010E94F010FC
:1023E000882359F081E04B855C856D857E85441599
:1023F00055056605770509F080E02E960FB6F8942E
:10240000DEBF0FBECDBFDF91CF911F910F91FF9027
:10241000EF90DF90CF90BF90AF909F908F907F9084
:102420006F905F904F900895EF92FF920F931F93DC
:10243000CF93DF937C018C01D0E0C0E0CE010E94FD
:10244000EE10F80181938F012196C032D105B1F7CA
:1024500060E270E0C7010E94E80D8C0180E290E02C
:102460000E94EE10C82F81E290E00E94EE10D82F5B
:1024700081E0C017D10709F080E0DF91CF911F9173
:102480000F91FF90EF9008952F923F924F925F929D
:102490006F927F928F929F92AF92BF92CF92DF9274
:1024A000EF92FF920F931F93CF93DF93CDB7DEB7D9
:1024B000C153D1400FB6F894DEBF0FBECDBF8C0123
:1024C0004B01D42E0E9452042B013C010E94810C2E
:1024D0006DEC71E0C8010E94581F8C01892B09F432
:1024E0002BC36DEC71E090E080E00E94581F7C01EE
:1024F0006DEC71E090E080E00E94581F6FE671E0A3
:10250000892B79F46FEC71E0C8010E949124892B2A
:1025100009F08FC08D2D0E94AF0B811106C06DE5B3
:1025200071E0C4010E94740E07C3BE016F5F7F4F4C
:10253000C7010E942C0E882391F38E010F5F1F4F5D
:102540009E012F5D3F4F780180E0D7019D917D0175
:10255000892B2A173B07C9F7811103C061E471E099
:10256000E0CF82E290E00E94EE10863AE1F4CE01E4
:102570008F579F4F0E9414128823A9F0FE01EF5736
:10258000FF4FDE01119620E08D9191918927282B34
:10259000AE15BF05C9F780E091E0821B9109892F34
:1025A0009927892BD9F61092010360E082E290E02E
:1025B0000E94DA1060E08AE490E00E94DA1060E0A5
:1025C0008AE590E00E94DA10F12CE12CF80161918B
:1025D0008F01C7010E94DA10FFEFEF1AFF0A20E215
:1025E000E216F10499F760E270E0CE0101960E94D4
:1025F000E80D192F682F80E290E00E94DA10612F19
:1026000081E290E00E94DA1041E050E060E070E08A
:1026100080E490E00E94831166E371E0882309F46E
:1026200080CF66EA82E290E00E94DA1060E271E018
:1026300078CF69ED71E0C8010E9491245C01892B7B
:1026400041F062EE71E0C8010E949124892B09F0EB
:1026500073C1EF2809F06CC08D2D0E94AF0B882349
:1026600009F466C0C301B2010E94B801882309F4CD
:102670005FC080915801843109F05AC030916501E2
:10268000CF5CDE4F3883C153D140311151C08091AE
:102690005A0190915B01A0915C01B0915D01481AD3
:1026A000590A6A0A7B0A4FE5441641E05406610460
:1026B0007104F0F540910001509101016091020117
:1026C00070910301E4E0F1E020E531E0DB01CA01B3
:1026D000C190D190E190F190C416D506E606F706B8
:1026E00014F4B701A6018C159D05AE05BF0514F4C1
:1026F000D701C6012E173F0759F7841B950BA60B70
:10270000B70B81329340A105B10594F40E943102C8
:10271000AB2889F4609377027093780280937902F2
:1027200090937A0281E08093760263EF70E0F9CEB5
:102730006DE071E0F6CE20917602222309F45EC0AE
:1027400020917702309178024091790250917A027B
:10275000C35DDE4F288339834A835B83CD52D140EA
:102760006B017C01FF0CCC08DC2C760129013A01BD
:10277000770C4408542C32019B01AC016C2D7C2D4C
:102780008C2D9C2DC35DDE4FA880CD52D140C25D03
:10279000DE4FB880CE52D140C15DDE4FC880CF52EF
:1027A000D140C05DDE4FD880C053D140E42CF42C22
:1027B000042D142D0E941A230E94472020E030E0AF
:1027C0004AEF53E40E949F1F2B013C017C016B01E7
:1027D000E894F7F820E030E048EC52E4C701B60195
:1027E0000E949A1F87FD0AC020E030E44CE156E4C5
:1027F000C701B6010E944D2118161CF466EE70E068
:1028000090CEC35DDE4F88819981AA81BB81CD5274
:10281000D14089839A83AB83BC834D825E826F8271
:10282000788668E070E0CE0101960E94E80D898705
:102830009A8760E08AE890E00E94DA10DE01119643
:102840001D018D0150E8A52EB12CF80161918F0179
:10285000C5010E94DA10FFEFAF1ABF0A2AE8A216DC
:10286000B10499F763EC8AE890E00E94DA1000E87E
:1028700010E0C8010E94EE10D1019D911D01891345
:1028800053C00F5F1F4F0A38110599F7C35DDE4F24
:10289000288139814A815B81CD52D14020935001FA
:1028A000309351014093520150935301409254018F
:1028B000509255016092560170925701862D880FF3
:1028C000872D881F8F3FF9F020E030E048EC52E47C
:1028D000C701B6010E944D2187FD15C031E0CF5CD4
:1028E000DE4F3883C153D14020E030E44CE156E460
:1028F000C701B6010E949A1F18162CF4CF5CDE4F58
:102900001882C153D140CF5CDE4F4881C153D140C2
:102910004093620110925901109258018AE890E0A8
:102920000E94EE10833C19F06BED70E0FACD10922E
:1029300076026EEC70E0F5CD6AEE71E0C8010E949F
:102940009124892B09F015C1E114F10489F00CE6FA
:1029500011E0CC24C394D8016D917D918D01C70104
:102960000E949124892B29F0C394B7E0CB12F3CFB6
:10297000C12C809103038823B1F08091FD029091D6
:10298000FE02A091FF02B0910003A3019201281B57
:10299000390B4A0B5B0BDA01C90180339547A1055E
:1029A000B10508F4E3C0109203038091010388236A
:1029B00009F4DCC0CC2009F4D9C08091F5029091D3
:1029C000F602A091F702B091F8028F3F4FEF940703
:1029D000A407B40709F4CAC00196A11DB11D8093D4
:1029E000F5029093F602A093F702B093F80250918B
:1029F000F1024091F2023091F3022091F402CF579C
:102A0000DF4F5883C158D040CB57DF4F8883C5581C
:102A1000D040CE57DF4F4883C258D040CA57DF4F0F
:102A20009883C658D040CD57DF4F3883C358D04025
:102A3000C957DF4FA883C758D040CC57DF4F2883F2
:102A4000C458D040C857DF4FB883C858D040C75784
:102A5000DF4FD882C958D0408CE791E09A838983B0
:102A6000CE0101960E944F0B40E250E06FEB72E006
:102A7000CE0101960E94A41049E050E06FEE71E093
:102A8000CE0101960E94880E49E050E0BE016F57CA
:102A90007F4FCE0101960E94880E00E110E02FEDDD
:102AA00032E040E250E06FEB72E0CE0101960E940E
:102AB0001E10C0920403D092EF024092F90250928D
:102AC000FA026092FB027092FC0281E080930203A2
:102AD000CE0101960E94A50BAE014F5F5F4F60E1F2
:102AE0008FED92E00E94040E65EB70E0C4010E943D
:102AF0005E04CA94EC2DF0E0EE0FFF1FE459FE4F88
:102B0000608171816115710519F0C4010E94650E23
:102B1000D401ED91FC910190F081E02D60E2C401BF
:102B20000995BE016F5F7F4FC4010E94650E65EC81
:102B300071E0C4010E94650ECF5CDE4F0FB6F894C1
:102B4000DEBF0FBECDBFDF91CF911F910F91FF90E0
:102B5000EF90DF90CF90BF90AF909F908F907F903D
:102B60006F905F904F903F902F90089560EC70E0D1
:102B7000D8CC69EF71E0C8010E949124892B09F03B
:102B800094C280910103882309F4CCC08091020390
:102B9000882309F4C7C08091EF02D812C3C0809186
:102BA000F9029091FA02A091FB02B091FC02A301FC
:102BB0009201281B390B4A0B5B0BDA01C901803DDE
:102BC0009740A105B10508F0ADC0809103038823AB
:102BD000B1F08091FD029091FE02A091FF02B091B0
:102BE0000003A3019201281B390B4A0B5B0BDA018E
:102BF000C90180339547A105B10508F493C010922F
:102C00000203BE01635F7E4FC7010E942C0E882322
:102C100009F48AC0AE014F575F4F60E18FED92E03B
:102C20000E94040E8CE791E09A838983AE014F5F86
:102C30005F4F7A01CA010E944F0B40E250E06FEBF8
:102C400072E0C7010E94A41047E050E06EEF71E00F
:102C5000C7010E94880EE0910403E15068EC71E026
:102C6000E63038F4F0E0EE0FFF1FE459FE4F6081CC
:102C70007181FB0101900020E9F73197AF01461BFC
:102C8000570BC7010E94880E41E050E067EF71E0EA
:102C9000C7010E94880E40E250E0BE016F577F4F8F
:102CA000C7010E94880E00E210E09E0124513F4FB0
:102CB00040E250E06FEB72E0C7010E941E10C701B6
:102CC0000E94A50BFE01E35FFE4FDE01A451BF4F42
:102CD000AF01405E5F4F20E081919D918927282BB5
:102CE000E417F507C9F780E091E0821B9109892F6D
:102CF0009927892BC9F01092F0020E9452042B01EF
:102D00003C010E94810C80910403833009F4AEC021
:102D100010F5813059F1823009F45BC00E94200C1B
:102D200000E0ACC0109202038091F0028F5F8093AC
:102D3000F002853068F081E0809303034092FD0249
:102D40005092FE026092FF02709200031092F00215
:102D50006CEA70E0E6CB853009F46EC108F468C116
:102D60008630E1F60E94200C01E088C080911F03AC
:102D70008823C9F0809120038823A9F080912B0338
:102D800090912C03A0912D03B0912E03A3019201E9
:102D9000281B390B4A0B5B0BDA01C901803D9740B8
:102DA000A105B10540F040922F035092300360928C
:102DB00031037092320381E080931F0380932003DC
:102DC00040922B0350922C0360922D0370922E039D
:102DD000C9CF80911F038823C9F0809120038823E5
:102DE000A9F080912B0390912C03A0912D03B09119
:102DF0002E03A3019201281B390B4A0B5B0BDA014E
:102E0000C901803D9740A105B10540F040922F03D4
:102E100050923003609231037092320381E08093CC
:102E20001F031092200340922B0350922C036092B8
:102E30002D0370922E0380911D03882391F0109230
:102E40001D03409227035092280360922903709239
:102E50002A034092330350923403609235037092F8
:102E6000360310925901109258017CCFB301A20190
:102E700080E00E94011A082F0E94200C0E94520438
:102E80002B013C010E94810CC301B2010E94D60BB0
:102E9000482FC301B2010E940703B82E0E940B0203
:102EA000C82EDB2C811101C0D12C10E0709074026F
:102EB00060907502A090630180916201882309F4FB
:102EC000EFC00E94A6021F930F936F927F921F92F2
:102ED000AF921F92BF929F938F937F936F931F9296
:102EE000CF921F92DF9280911D031F928F9380914A
:102EF00022031F928F9380911B031F928F938091C7
:102F00001A031F928F93809118031F928F938091C1
:102F100019031F928F93809116031F928F938091B4
:102F200017031F928F9386E092E09F938F931F92D7
:102F300080E88F93FF92EF920E949A240FB6F89444
:102F4000DEBF0FBECDBFAE0144515F4F60E18FEDDC
:102F500092E00E94040E8CE791E0CF57DF4F9983F7
:102F60008883C158D040CE018F579F4F0E944F0B8E
:102F700040E250E06FEB72E0CE018F579F4F0E940E
:102F8000A41048E050E066E372E0CE018F579F4FF7
:102F90000E94880E40E250E0BE0164517F4FCE0196
:102FA0008F579F4F0E94880E41E050E067EF71E01D
:102FB000CE018F579F4F0E94880EF701019000208D
:102FC000E9F73197AF014E195F09B701CE018F576D
:102FD0009F4F0E94880E00E210E09E01235F3E4F4B
:102FE00040E250E06FEB72E0CE018F579F4F0E949E
:102FF0001E10CE018F579F4F0E94A50BAE014F5759
:103000005F4F60E2CE01835F9E4F0E94040EB701C6
:10301000C4010E94650ED401ED91FC910190F081F4
:10302000E02D60E2C4010995BE016F577F4F7CCD52
:10303000B301A20181E01DCF80911D0381116ECEED
:10304000C301B2010E94B801882309F467CE8091C0
:103050001A03882309F462CE80911B03882309F4A4
:103060005DCE80911C03882309F458CE809116030D
:10307000882321F090911903911150CE909117035C
:10308000992321F090911803911148CE9091190342
:10309000992309F443CE811141CE1092220362CECE
:1030A00060E070E080E090E00ECF6FE372E0C80176
:1030B0000E949124892B29F464E770E0EF2809F439
:1030C00030CA68E670E02DCA9F92AF92BF92CF924D
:1030D000DF92EF92FF920F931F93CF93DF937C01C8
:1030E000EB01A42E81E1B82E6B0181E6C80ED11C44
:1030F0008B01005A1F4F99249394D701ED91FC91B5
:103100000084F185E02DC7010995892BD9F1BA9486
:10311000BB20C1F1D701ED91FC910284F385E02D34
:10312000C70109958A30A1F4F601808181110BC095
:10313000D801EC91EC0FFD2FF11D10824A2DB70143
:10314000CE010E944412F8011082D6011C92D5CF04
:103150008D3099F2F60190819111CFCF90EE980FBA
:103160009F3520F4D801EC91EF3520F0F6019082E4
:10317000D801ECCF91E09E0F9C93EC0FFD2FF11D39
:103180008083BBCFDF91CF911F910F91FF90EF9084
:10319000DF90CF90BF90AF909F9008951F920F92B5
:1031A0000FB60F9211242F933F938F939F93AF935A
:1031B000BF938091120390911303A0911403B091D7
:1031C00015033091110323E0230F2D3758F5019695
:1031D000A11DB11D2093110380931203909313033B
:1031E000A0931403B093150380910D0390910E03E7
:1031F000A0910F03B09110030196A11DB11D809302
:103200000D0390930E03A0930F03B0931003BF918F
:10321000AF919F918F913F912F910F900FBE0F9083
:103220001F90189526E8230F0296A11DB11DD2CF3D
:103230001F920F920FB60F9211242F933F934F932B
:103240005F936F937F938F939F93AF93BF93EF930E
:10325000FF9387E393E00E940005FF91EF91BF91F8
:10326000AF919F918F917F916F915F914F913F911E
:103270002F910F900FBE0F901F9018951F920F92D5
:103280000FB60F9211242F938F939F93EF93FF9379
:10329000E0914703F09148038081E0914D03F09164
:1032A0004E0382FD1BC09081809150038F5F8F730E
:1032B00020915103821741F0E0915003F0E0E95C66
:1032C000FC4F958F80935003FF91EF919F918F91C9
:1032D0002F910F900FBE0F901F9018958081F4CF03
:1032E0001F920F920FB60F9211242F933F934F937B
:1032F0005F936F937F938F939F93AF93BF93EF935E
:10330000FF93E091BD02F091BE02309749F0A6858F
:10331000B7858585968D91FF14C09C918923A1F472
:10332000FF91EF91BF91AF919F918F917F916F919D
:103330005F914F913F912F910F900FBE0F901F9073
:1033400018959C91892361F7A389B4899C918589FB
:10335000809589238C93868997890197F1F7608DF1
:10336000718DA685B785558538E020E0CB010197A2
:10337000F1F7822F90E095958795282F4C91452362
:1033800009F02068315091F7868D81FD209580915C
:10339000BC0290E001968F7399273091BB023817D9
:1033A00099F0A091BC02B0E0A558BD4F2C9380933A
:1033B000BC02828D938D0197F1F7A389B4898C911A
:1033C0009589892B8C93ACCF868D8160868FF1CFC8
:1033D0001F920F920FB60F9211248F93EF93FF93CA
:1033E0005F98EFE6F0E080818D7F808381E08093BD
:1033F0006F02FF91EF918F910F900FBE0F901F9072
:103400001895CF92DF92EF92FF92CF93DF93909136
:10341000220391115BC0C0911D03C11157C090914F
:103420001A03992309F44AC090911B03992309F4C4
:1034300045C090911C03992309F440C06A017B01A7
:10344000D82FCB01BA010E94B8018823B9F180912D
:10345000270390912803A0912903B0912A03A70183
:103460009601281B390B4A0B5B0BDA01C901803727
:103470009741A105B10510F1909119039923F1F03D
:103480008091160381111AC0C0911803C1111EC08A
:1034900080911703D11102C021E0822781110EC053
:1034A00081E080931D03D0931E03C0922303D0922A
:1034B0002403E0922503F0922603C92F8C2FDF917D
:1034C000CF91FF90EF90DF90CF900895C0E0F6CFBE
:1034D00010923A031092390388EE93E0A0E0B0E036
:1034E00080933B0390933C03A0933D03B0933E0332
:1034F00024E931E0309338032093370325EC30E0A2
:10350000309344032093430324EC30E0309346038C
:103510002093450320EC30E0309348032093470389
:1035200021EC30E030934A032093490322EC30E051
:1035300030934C0320934B0326EC30E030934E0342
:1035400020934D0310925003109251031092520396
:10355000109253031092C5041092C4048093C604C1
:103560009093C704A093C804B093C90486EA91E07D
:103570009093C3048093C2041092D9041092D8048B
:103580001092DB041092DA041092DD041092DC0435
:103590001092DF041092DE046091E0046E7F6D7F74
:1035A0006093E0046695617081E068278BE00E947B
:1035B000E80361E08BE00E941604EEE0F3E0E491A2
:1035C000E093D204EAEFF2E0E491F0E0EE0FFF1FA7
:1035D000EB51FD4F859194919093D4048093D30443
:1035E00060E08AE00E9416048091E00481FD04C03E
:1035F00061E08AE00E94E8038AE08093CE04EDE077
:10360000F3E0E491E093CF04E9EFF2E0E491F0E03D
:10361000EE0FFF1FE552FD4F859194919093D104D9
:103620008093D00482E08093BB041092BC0410927B
:10363000BD041092BE041092BF041092C0041092F8
:10364000C10483E08093B4041092B5041092B604D0
:103650001092B7041092B8041092B9041092BA04F0
:1036600084E08093AD041092AE041092AF041092E7
:10367000B0041092B1041092B2041092B30485E029
:103680008093A6041092A7041092A8041092A90493
:103690001092AA041092AB041092AC048CE08093B8
:1036A0009F041092A0041092A1041092A204109200
:1036B000A3041092A4041092A50481E180939804BD
:1036C0001092990410929A0410929B0410929C04F8
:1036D00010929D0410929E041092960410929704EA
:1036E00010923404109235040895CF93DF93CDB730
:1036F000DEB7AE970FB6F894DEBF0FBECDBF78949D
:1037000084B5826084BD84B5816084BD85B58260E6
:1037100085BD85B5816085BD80916E008160809397
:103720006E00109281008091810082608093810000
:103730008091810081608093810080918000816010
:10374000809380008091B10084608093B10080916B
:10375000B00081608093B00080917A008460809393
:103760007A0080917A00826080937A0080917A005A
:10377000816080937A0080917A00806880937A00DB
:103780001092C10060E087E00E94E80361E087E0FA
:103790000E94160461E086E00E94160461E08DE05C
:1037A0000E94160460E089E00E94E80361E089E07D
:1037B0000E94160462E088E00E9416048BEB94E0FD
:1037C0000E94CF0D84EB94E00E94CF0D8DEA94E02F
:1037D0000E94CF0D86EA94E00E94CF0D8FE994E01D
:1037E0000E94CF0D88E994E00E94CF0DE09147033D
:1037F000F091480382E08083E0914303F091440319
:103800001082E0914503F091460380E1808310929D
:103810004F03E0914B03F0914C0386E08083E091ED
:103820004903F0914A03808180618083E0914903DC
:10383000F0914A03808188608083E0914903F09190
:103840004A03808180688083E0914903F0914A03B4
:1038500080818F7D80831092DD041092DC041092B1
:10386000DB041092DA041092D9041092D8048DE986
:1038700091E09093DF048093DE049091CE04963122
:1038800008F047C02DEB30E03093D9042093D804E2
:103890002BE931E03093DB042093DA042CE231E0B1
:1038A0003093DD042093DC042091680084E098309C
:1038B00048F031E09E3008F430E081E001C0880F2C
:1038C0003A95EAF7822B809368002DE630E0983035
:1038D00050F02BE630E09E3030F02CE630E09631B0
:1038E00010F030E020E03093D6042093D504292F47
:1038F00030E0983008F008C281E001C0880F9A9546
:10390000EAF78093D7048091DE049091DF04019759
:10391000F1F78091DC049091DD04892B49F1E0916D
:10392000BD02F091BE0224E0E23CF20709F13097BB
:1039300039F0A389B4899C918589809589238C93DA
:103940008091E0048E7F8093E0041092BC0210927C
:10395000BB0282EC94E09093BE028093BD02E091A2
:10396000D504F091D60480819091D704892B80836F
:103970000E9452046093050370930603809307032B
:103980009093080321E2E6E1F3E0DF011D922A951E
:10399000E9F7609333037093340380933503909376
:1039A0003603609327037093280380932903909331
:1039B0002A030E94C00B82E290E00E94EE108E016A
:1039C0000F5D1F4F863A09F06EC0CE0101960E942E
:1039D0001412882309F467C01BA61CA61DA61EA6E8
:1039E00019A21AA21BA21CA2BE01655D7F4F80E432
:1039F00090E00E94F010782EB80180E590E00E94DF
:103A0000F010711003C0882309F44DC08BA49CA44E
:103A1000ADA4BEA449A15AA16BA17CA1750164010A
:103A200084169506A606B70610F46A017B01BFEF5F
:103A3000CB16DB06EB06FB06B1F1EFEFCE1ADE0A82
:103A4000EE0AFE0A882349F0772009F46AC1841639
:103A50009506A606B70608F464C180E590E0B701B4
:103A6000A6010E9483118823F1F080E2FE013196C5
:103A7000AFEBB2E001900D928A95E1F7C092F102AE
:103A8000D092F202E092F302F092F4021092F50268
:103A90001092F6021092F7021092F80281E08093E1
:103AA000010310920203FE01319610823196E01755
:103AB000F107D9F7680160E8E62EF12CC7010E94F2
:103AC000EE10D6018D936D01BFEFEB1AFB0AEAE809
:103AD000EE16F10499F78AE890E00E94EE10833C1C
:103AE00009F047C068E070E0C8010E94E80D29A510
:103AF0003AA58217930709F03CC0CDA0DEA0EFA045
:103B0000F8A409A11AA12BA13CA100935001109384
:103B100051012093520130935301C0925401D0922D
:103B20005501E0925601F09257012E2D220F2F2DB4
:103B3000221F2F3FB9F0E894F7F820E030E048EC7E
:103B400052E4C701B6010E944D2187FD0BC011E070
:103B500020E030E44CE156E4C701B6010E949A1F10
:103B600018160CF410E01093620110925901109293
:103B7000580188E19EE00FB6F894A8958093600004
:103B80000FBE909360006AE772E087E393E00E94C3
:103B9000740E44E1242E312C58EC452E512C612C0E
:103BA000712CA8950E9452044B015C010E94810C6B
:103BB00088E00E94BF03892BA9F5C12CD12C760186
:103BC00010E00FB7F89461E089E00E94E803183133
:103BD000A1F0CC0CDD1CEE1CFF1C88E00E94BF0392
:103BE00041E050E060E070E0892B19F440E050E0E3
:103BF000BA01C42AD52AE62AF72A60E089E00E94A1
:103C0000E8030FBF1F5F1931E1F688E00E94BF0390
:103C1000892B09F089C081E08093650110925901D8
:103C2000109258018091270390912803A0912903B5
:103C3000B0912A034091090350910A0360910B034C
:103C400070910C0384179507A607B70761F080935E
:103C5000090390930A03A0930B03B0930C031092F3
:103C6000590110925801C501B4010E94D60B482F8A
:103C7000C501B4010E940703109163018111B3C013
:103C80001093640180925E0190925F01A0926001A6
:103C9000B092610140E066E374E087E393E00E9444
:103CA00064180E9452040E94810C41E064ED73E0AC
:103CB00082EC94E00E9464180E9452040E94810CDD
:103CC0000E940B02682F86E00E94E8038091220385
:103CD00060911D03882341F00E945204A3019201C8
:103CE0000E94D321622F61708DE00E94E803E0E022
:103CF000F0E0EF2B09F455CF0E94EC04882309F47F
:103D000050CF0E9400004DCF9E3040F42850310922
:103D100081E001C0880F2A95EAF7F3CD2E503109D2
:103D2000F7CF80E490E09BCEE7FE02C0FF24FA9438
:103D3000C501B4010E94B801882309F46FCF8091B6
:103D40001D0381116BCF8091270390912803A091CF
:103D50002903B0912A03A5019401281B390B4A0BB2
:103D60005B0BDA01C901883B9B40A105B10508F452
:103D700055CF80925A0190925B01A0925C01B09263
:103D80005D01D701C6010297A048BF4F21E08C3FDB
:103D90004FEF9407A407B10508F420E020936501D4
:103DA0008C3F9F4FAF4FB10508F038CF809159013C
:103DB00090E0FC01EE0FFF1FEE0FFF1FE050FF4FE2
:103DC000C082D182E282F3820196B1010E94BF21BA
:103DD0008093590180915801843108F023CF8F5F7F
:103DE000809358011FCF80916201882361F00E9467
:103DF000A60221E0112359F0693E73408105910527
:103E00005CF420E009C060E070E0CB01F2CF683BD9
:103E10007B4081059105ACF390916401921751F0BC
:103E20002093640180925E0190925F01A0926001F4
:103E3000B0926101121709F42DCF40915E015091AB
:103E40005F016091600170916101841A950AA60A70
:103E5000B70A40E253E060E070E0211104C04CED8D
:103E600055E060E070E084169506A606B70608F4F3
:103E700011CF209363010ECF86EA91E09093C304A3
:103E80008093C2048091BD029091BE02825C9440F6
:103E900071F4E091D504F091D60490818091D7041B
:103EA0008095892380831092BE021092BD020895EE
:103EB00041EE54E00E945D1F0895FA01A191B08186
:103EC000009719F41097E1F0CD01DC01CD010D90C0
:103ED000002011F4C00113C0FB012191222319F02D
:103EE0002015D9F7F3CFFB012191201519F41E926B
:103EF000119606C02223C1F70D900020A1F7D00132
:103F0000FA01A193B0830895F999FECF92BD81BDC6
:103F1000F89A992780B50895262FF999FECF1FBAF0
:103F200092BD81BD20BD0FB6F894FA9AF99A0FBEE2
:103F3000019608950E94C82008F481E008950E9427
:103F4000B31F0C9413210E940C2158F00E940521EC
:103F500040F029F45F3F29F00C94EC2051110C94AF
:103F600047210C94F2200E94242168F39923B1F395
:103F7000552391F3951B550BBB27AA27621773078F
:103F8000840738F09F5F5F4F220F331F441FAA1F23
:103F9000A9F335D00E2E3AF0E0E832D091505040DF
:103FA000E695001CCAF72BD0FE2F29D0660F771F8D
:103FB000881FBB1F261737074807AB07B0E809F073
:103FC000BB0B802DBF01FF2793585F4F3AF09E3FF8
:103FD000510578F00C94EC200C9447215F3FE4F3FA
:103FE000983ED4F3869577956795B795F7959F5F3B
:103FF000C9F7880F911D9695879597F90895E1E087
:10400000660F771F881FBB1F621773078407BA07E5
:1040100020F0621B730B840BBA0BEE1F88F7E09540
:1040200008950E9418206894B1110C9447210895B6
:104030000E942C2188F09F5798F0B92F9927B751EB
:10404000B0F0E1F0660F771F881F991F1AF0BA953C
:10405000C9F714C0B13091F00E944621B1E0089533
:104060000C944621672F782F8827B85F39F0B93F25
:10407000CCF3869577956795B395D9F73EF49095EF
:104080008095709561957F4F8F4F9F4F089597FB57
:1040900016F40E94F5200C948B20E89409C097FB3D
:1040A0003EF490958095709561957F4F8F4F9F4F0F
:1040B0009923A9F0F92F96E9BB279395F695879553
:1040C00077956795B795F111F8CFFAF4BB0F11F416
:1040D00060FF1BC06F5F7F4F8F4F9F4F16C08823BD
:1040E00011F096E911C0772321F09EE8872F762FF3
:1040F00005C0662371F096E8862F70E060E02AF034
:104100009A95660F771F881FDAF7880F969587951F
:1041100097F90895E894F92F96EBFF2381F0121692
:1041200013061406440B9395F69587957795679536
:1041300057954040FF23B9F71BC09927089588235E
:1041400051F49850D2F7872B762F652F542F432F99
:10415000322F20E0B1F3121613061406440B882305
:104160003AF09A95440F551F661F771F881FCAF7AC
:1041700055234AF4440F551F11F460FF04C06F5FCC
:104180007F4F8F4F9F4F880F9695879597F908958A
:10419000990F0008550FAA0BE0E8FEEF1616170658
:1041A000E807F907C0F012161306E407F50798F0C0
:1041B000621B730B840B950B39F40A2661F0232BD9
:1041C000242B252B21F408950A2609F4A140A69555
:1041D0008FEF811D811D089597F99F6780E870E03A
:1041E00060E008959FEF80EC08959095809570951C
:1041F000609550954095309521953F4F4F4F5F4FBB
:104200006F4F7F4F8F4F9F4F089500240A941616CB
:10421000170618060906089500240A9412161306B4
:10422000140605060895092E0394000C11F4882342
:1042300052F0BB0F40F4BF2B11F460FF04C06F5F5E
:104240007F4F8F4F9F4F089557FD9058440F551F34
:1042500059F05F3F71F04795880F97FB991F61F008
:104260009F3F79F087950895121613061406551F7F
:10427000F2CF4695F1DF08C0161617061806991FEB
:10428000F1CF86957105610508940895E894BB27E0
:1042900066277727CB0197F908950E94C82008F474
:1042A0008FEF08950E9465210C9413210E9405212F
:1042B00038F00E940C2120F0952311F00C94EC2092
:1042C0000C94F22011240C9447210E94242170F3B5
:1042D000959FC1F3950F50E0551F629FF001729FAB
:1042E000BB27F00DB11D639FAA27F00DB11DAA1FBA
:1042F000649F6627B00DA11D661F829F2227B00D07
:10430000A11D621F739FB00DA11D621F839FA00D91
:10431000611D221F749F3327A00D611D231F849FE1
:10432000600D211D822F762F6A2F11249F57504038
:104330009AF0F1F088234AF0EE0FFF1FBB1F661FB3
:10434000771F881F91505040A9F79E3F510580F07C
:104350000C94EC200C9447215F3FE4F3983ED4F397
:10436000869577956795B795F795E7959F5FC1F720
:10437000FE2B880F911D9695879597F9089597FBC9
:10438000072E16F4009407D077FD09D00E9423234E
:1043900007FC05D03EF4909581959F4F0895709548
:1043A00061957F4F0895A1E21A2EAA1BBB1BFD0148
:1043B0000DC0AA1FBB1FEE1FFF1FA217B307E40704
:1043C000F50720F0A21BB30BE40BF50B661F771F5C
:1043D000881F991F1A9469F760957095809590953C
:1043E0009B01AC01BD01CF0108956927962769277C
:1043F0007827872778270895B7FF0C943D230E94DC
:104400003D23821B930B0895689401C0E894F92F13
:10441000F12B12F00C943822A0E0B0E0E2E1F2E2DD
:104420000C94AA22092E059422F40E9494221123AE
:1044300092F4F0E80F26FFEFE094F09400951095C9
:10444000B094C094D094A194BF0ACF0ADF0AEF0AB7
:10445000FF0A0F0B1F0B0E94432207FC0E949422AD
:10446000CDB7DEB7ECE00C94C622689401C0E894A6
:104470008F929F92CF93DF930E944322DF91CF913F
:104480009F908F90089588249924F401E401B0E46A
:104490009F93AA279A158B049C04ED05FE05CF0572
:1044A000D007A10798F4AD2FDC2FCF2FFE2FE92DD9
:1044B000982C892E982F872F762F652F542F432FD6
:1044C000322F2227B85031F7BF9127C01B2EBF9142
:1044D000BB27220F331F441F551F661F771F881FDE
:1044E000991F881C991CEE1FFF1FCC1FDD1FAA1FE0
:1044F000BB1F8A149B04EC05FD05CE05DF05A00754
:10450000B10748F08A189B08EC09FD09CE09DF09BC
:10451000A00BB10B21601A94E1F62EF49401AF01C7
:10452000BE01CD01000C0895609570958095909521
:1045300030954095509521953F4F4F4F5F4F6F4FAE
:104540007F4F8F4F9F4F08952F923F924F925F92D0
:104550006F927F928F929F92AF92BF92CF92DF9293
:10456000EF92FF920F931F93CF93DF93CDB7DEB7F8
:10457000CA1BDB0B0FB6F894DEBF0FBECDBF09948C
:104580002A88398848885F846E847D848C849B84E3
:10459000AA84B984C884DF80EE80FD800C811B81F1
:1045A000AA81B981CE0FD11D0FB6F894DEBF0FBE20
:1045B000CDBFED010895002E083090F0982F872F81
:1045C000762F652F542F432F322F22270850F4CFF8
:1045D000220F331F441F551F661F771F881F991F07
:1045E0000A95B2F7002D089597FD1094002E08301B
:1045F00098F00850232F342F452F562F672F782FF0
:10460000892F912DF4CF1594979587957795679578
:1046100057954795379527950A95AAF71124002DA8
:1046200008952A0D3B1D4C1D5D1D6E1D7F1D801FB5
:10463000911F08952A193B094C095D096E097F09EC
:10464000800B910B0895AA1BBB1B51E107C0AA1F49
:10465000BB1FA617B70710F0A61BB70B881F991F23
:104660005A95A9F780959095BC01CD010895EE0F5C
:10467000FF1F0590F491E02D09940E944823A59F07
:10468000900DB49F900DA49F800D911D112408954D
:10469000A29FB001B39FC001A39F700D811D112483
:1046A000911DB29F700D811D1124911D08950F93CE
:1046B0001F93CF93DF938230910510F482E090E056
:1046C000E091E504F091E60430E020E0B0E0A0E005
:1046D000309799F42115310509F44AC0281B390B8C
:1046E00024303105D8F58A819B816115710589F1E6
:1046F000FB0193838283FE0111C0408151810281BD
:10470000138148175907E0F04817590799F4109793
:1047100061F012960C93129713961C933296CF0168
:10472000DF91CF911F910F9108950093E5041093AD
:10473000E604F4CF2115310551F04217530738F044
:10474000A901DB019A01BD01DF01F801C1CFEF0131
:10475000F9CF9093E6048093E504CDCFFE01E20FFC
:10476000F31F819391932250310939832883D7CF46
:104770002091E3043091E404232B41F4209168015B
:10478000309169013093E4042093E30420916601A1
:10479000309167012115310541F42DB73EB74091A5
:1047A0006A0150916B01241B350BE091E304F091F9
:1047B000E404E217F307A0F42E1B3F0B2817390778
:1047C00078F0AC014E5F5F4F2417350748F04E0F6D
:1047D0005F1F5093E4044093E304819391939FCF30
:1047E000F0E0E0E09CCFCF93DF930097E9F0FC018D
:1047F000329713821282A091E504B091E604ED0194
:1048000030E020E01097A1F420813181820F931FC6
:104810002091E3043091E4042817390709F061C0BE
:10482000F093E404E093E304DF91CF910895EA016B
:10483000CE17DF07E8F54A815B819E0141155105DE
:10484000B1F7E901FB83EA8349915991C40FD51F60
:10485000EC17FD0761F4808191810296840F951F0A
:10486000E90199838883828193819B838A83F0E025
:10487000E0E012968D919C9113970097B9F52D91D8
:104880003C911197CD010296820F931F2091E30472
:104890003091E4042817390739F6309751F5109212
:1048A000E6041092E504B093E404A093E304BCCFC3
:1048B000D383C28340815181840F951FC817D907C4
:1048C00061F44E5F5F4F88819981480F591F518372
:1048D00040838A819B81938382832115310509F06E
:1048E000B0CFF093E604E093E5049ECFFD01DC0138
:1048F000C0CF13821282D7CF81E090E0F8940C945D
:104900004827FB01DC0102C001900D92415050404C
:10491000D8F70895DC0101C06D9341505040E0F795
:104920000895FB01DC018D91019080190110D9F3EC
:10493000990B0895AEE0B0E0E0EAF4E20C94B22204
:104940000D891E898F89988D26E02C831A8309830F
:1049500097FF02C080E090E801979E838D83AE01AF
:10496000455E5F4F698D7A8DCE0101960E94CA2403
:104970004D815E8157FD0AC02F813885421753074C
:104980000CF49A01020F131FF80110822E96E4E036
:104990000C94CE22ABE0B0E0E0EDF4E20C94A42263
:1049A0007C013B018A01FC0117821682838181FF11
:1049B000C8C1CE0101965C01F7019381F30193FD1B
:1049C000859193FF81913F01882309F453C185327A
:1049D00039F493FD859193FF81913F01853229F44C
:1049E000B70190E00E94BA26E7CF912C212C312C00
:1049F000FFE1F31538F08B3211F190F4803209F1B8
:104A0000833229F137FC3CC020ED280F2A3050F5C5
:104A100036FE20C08AE0989E200D1124922E06C0FA
:104A20008D3291F0803371F7689430F8F30193FD83
:104A3000859193FF81913F018111DACF21C0689464
:104A400031F8689432F8F2CF689433F8EFCF689475
:104A500034F8ECCFEAE02E9E200D1124222E68942B
:104A600035F8E4CF8E3229F436FC04C1689436F868
:104A7000DDCF8C3619F4689437F8D8CF8836B1F288
:104A8000982F9F7D95549330E0F08336A1F18337C2
:104A9000C1F1833509F063C02801F2E04F0E511CCB
:104AA000F801C080D180692D70E036FC02C06FEF44
:104AB0007FEFC6010E94A4264C01689437F882015A
:104AC0000AC00C5F1F4FFFE3F98388248394912C65
:104AD0006501E89437F833FE2DC0522C81149104FF
:104AE00071F5552009F468CFB70180E290E00E948B
:104AF000BA265A94F6CFF801808189830E5F1F4F42
:104B0000E4CF2801F2E04F0E511CF801C080D180A3
:104B1000692D70E036FC02C06FEF7FEFC6010E9486
:104B2000AF264C018201D5CFB70180E290E00E9410
:104B3000BA262A942814190409F0B0F7CECFF6014A
:104B400037FC859137FE81916F01B70190E00E949B
:104B5000BA2651105A94F1E08F1A9108BFCF8436CB
:104B600019F0893609F077C0F80137FE6BC0608113
:104B70007181828193810C5F1F4FF32DFF763F2E51
:104B800097FF09C090958095709561957F4F8F4FE5
:104B90009F4F689437F82AE030E0A5010E94EA268A
:104BA000C82ECA188C2C432C36FE0CC0E89440F852
:104BB000C91440F434FE05C032FC03C0F32DFE7E60
:104BC0004F2E892C44FE95C0FE01EC0DF11D808115
:104BD000803309F087C0242D297E422E842D8870D1
:104BE000582E43FC95C040FE8FC09C2C821418F4B4
:104BF0002C0C922C981844FE91C0B70180E390E0F1
:104C00000E94BA2642FE09C088E790E041FE02C039
:104C100088E590E0B7010E94BA26C91408F48AC05A
:104C2000CA94D12C9FEFC91AD90ACA0CDB1CF60111
:104C300082916F01B70190E00E94BA26AC14BD04C6
:104C4000B1F74FCF60817181072E000C880B990B53
:104C50000E5F1F4F92CFD32CE894D4F82AE030E0B7
:104C6000853739F1232D297FD22E8F3601F148F473
:104C70008835A9F0F701868197812B96E2E10C94A3
:104C8000C022803749F08837A9F7D4FE02C0689463
:104C9000D2F820E130E00DC06894D4F8F6CF34FEAD
:104CA00003C0822F8660D82E20E132E002C028E0C7
:104CB00030E0F801D7FE0FC060817181828193815D
:104CC0000C5F1F4FA5010E94EA26C82ECA183D2C72
:104CD000E89437F867CF6081718190E080E00E5FE3
:104CE0001F4FF0CF42FC02C0839478CF839483940B
:104CF00075CF842D867809F471CFF6CFB70180E2A5
:104D000090E00E94BA2683948214C0F3512C73CF92
:104D1000522C5818821408F46ECFF8CF842D867860
:104D200009F47BCF8BE241FE80E247FC8DE2B701C4
:104D300090E071CFB70180E390E00E94BA269A9488
:104D40006CCF8FEF9FEF99CFFC01059061507040C1
:104D50000110D8F7809590958E0F9F1F0895FC0144
:104D60006150704001900110D8F7809590958E0F9A
:104D70009F1F08950F931F93CF93DF93182F092F31
:104D8000EB018B8181FD09C01FEF0FEF812F902F69
:104D9000DF91CF911F910F91089582FF14C02E8152
:104DA0003F818C819D81281739073CF4E881F98186
:104DB000CF0101969983888310838E819F8101960C
:104DC0009F838E83E3CFE885F985812F0995892B11
:104DD000A1F3DACFFA01AA27283051F1203181F16D
:104DE000E8946F936E7F6E5F7F4F8F4F9F4FAF4FF3
:104DF000B1E03ED0B4E03CD0670F781F891F9A1F06
:104E0000A11D680F791F8A1F911DA11D6A0F711DB9
:104E1000811D911DA11D20D009F468943F912AE0C5
:104E2000269F11243019305D3193DEF6CF010895AD
:104E3000462F4770405D4193B3E00FD0C9F7F6CFDE
:104E4000462F4F70405D4A3318F0495D31FD4052A6
:104E5000419302D0A9F7EACFB4E0A695979587953C
:104E600077956795BA95C9F700976105710508951B
:104E70009B01AC010A2E06945795479537952795C7
:104E8000BA95C9F7620F731F841F951FA01D08955F
:104E900011E0CDE8D1E004C0FE010E943723219645
:0A4EA000CE38D107C9F7F894FFCF10
:104EAA0000000000000000000000000000000000F8
:104EBA0000000000000000000000000000000000E8
:104ECA0000000000000000000000000000000000D8
:104EDA0000000000000000000000000000000000C8
:104EEA0000000000000000000000000000000000B8
:104EFA0000000000000000000000000000000000A8
:104F0A000000000000010000E704800044024C0297
:104F1A0053025A026002660200000000A50BD0107C
:104F2A00A20B9F0B4F0B880EF60E3E0BA4101E1001
:104F3A000000000022058204AF046F05E004BE04ED
:104F4A00D20400000000A80582043B06A705040657
:104F5A001A068F05303132333435363738396162C3
:104F6A0063646566000D0A004E4F4E4500200050EE
:104F7A00524F564953494F4E0043414C5F5A45528E
:104F8A004F0043414C5F353030004348414C00529A
:104F9A00332D4E4F4E43457C004155544800523301
:104FAA002D5245517C0053202575202575202575E5
:104FBA002025752025752025752025752025752025
:104FCA00257520257520256C6420257520257520DA
:104FDA0025752025750052332D524553507C0049C2
:104FEA004E464F0053544F50504544004D4F56497A
:104FFA004E4700554E4C4F434B00434C4F534500D0
:0E500A00524553455400535441545553000031
:00000001FF
